:100000000C9434000C9446000C9446000C9446006A
:100010000C9446000C9446000C9446000C94460048
:100020000C9446000C9446000C9446000C94460038
:100030000C9446000C9446000C9446000C94460028
:100040000C9446000C9446000C9446000C94460018
:100050000C9446000C9446000C9446000C94460008
:100060000C9446000C94460011241FBECFEFD8E03C
:10007000DEBFCDBF11E0A0E0B1E001C01D92AF3006
:10008000B107E1F70E9455010C94B9010C940000EE
:10009000DC011296ED91FC9113972081ED91FC917A
:1000A00080819181A281B381222311F05B9A01C0EA
:1000B0005B98FC012081222311F05C9A01C05C98BE
:1000C000FD018081882311F05D9A08955D9808955F
:1000D000CF93DF93CDB7DEB72B970FB6F894DEBF83
:1000E0000FBECDBFDC012D913C91119712960D9062
:1000F000BC91A02D8C918B87F90180818A87E1E0EA
:10010000F1E0CE010B9691838083019793838283E4
:100110008091010190910201A0910301B09104012D
:100120008D839E83AF83B887809100018987CE013C
:1001300005969A83898304969C838B8308970E94F3
:1001400048002B960FB6F894DEBF0FBECDBFDF91EF
:10015000CF910895CF92DF92EF92FF920F931F936A
:10016000CF93DF9300D000D000D0CDB7DEB7DC0155
:10017000ED91FC91119700811296ED91FC911397EE
:10018000108181E01827109306011E8380910501DC
:100190008D836E01B6E0CB0ED11CDA82C9827E015E
:1001A00085E0E80EF11CFC82EB82CE0101960E94F4
:1001B0006800009305011E830D83DA82C982FC82E8
:1001C000EB82CE0101960E94680026960FB6F89445
:1001D000DEBF0FBECDBFDF91CF911F910F91FF907A
:1001E000EF90DF90CF900895CF92DF92EF92FF9241
:1001F0000F931F93CF93DF93CDB7DEB729970FB639
:10020000F894DEBF0FBECDBFDC011296ED91FC91DC
:1002100013971081ED91FC910081109308011987CB
:10022000809107018D837E01B9E0EB0EF11CFA820B
:10023000E9826E0185E0C80ED11CDC82CB82CE0142
:1002400001960E94AA001093070119871D83FA8264
:10025000E982DC82CB82CE0101960E94AA00009343
:1002600000018091010190910201A0910301B091E0
:1002700004018D839E83AF83B8870987DA82C982A0
:10028000FC82EB82CE0101960E94480029960FB6AF
:10029000F894DEBF0FBECDBFDF91CF911F910F91BC
:1002A000FF90EF90DF90CF900895CF93DF9300D031
:1002B00000D000D0CDB7DEB78091810084608093FC
:1002C000810080918100816080938100539A549ACB
:1002D000559ABB24B3947E0126E0E20EF11C8E01F8
:1002E0000B5F1F4F809184009091850010928500D4
:1002F0001092840020910D0130910E01820F931F06
:100300002131374210F08051974290930E01809333
:100310000D018131974230F380910B0190910C01D6
:10032000019690930C0180930B018170992741E015
:100330008427282F2170D22EC22ECB24C0920A01EE
:10034000CE82809109018D83FA82E9821C830B831E
:10035000CE0101960E94F400D0920901CE82DD8286
:10036000FA82E9821C830B83CE0101960E94F4007D
:06037000B9CFF894FFCFA5
:00000001FF
